{
  "config" : {
    "chainId" : 116687680,
    "homesteadBlock" : 0,
    "eip150Block" : 0,
    "eip155Block" : 0,
    "eip158Block" : 0,
    "byzantiumBlock" : 0,
    "constantinopleBlock" : 0,
    "constantinopleFixBlock" : 0,
    "istanbulBlock" : 0,
    "muirGlacierBlock" : 0,
    "berlinBlock" : 0,
    "londonBlock" : 0,
    "shanghaiTime": 0,
    "zeroBaseFee" : true,
    "contractSizeLimit": 2147483647,
    "qbft" : {
      "blockperiodseconds" : 12,
      "epochlength" : 3000,
      "requesttimeoutseconds" : 24
    }
  },
  "nonce" : "0x0",
  "timestamp" : "0x652399D3",
  "gasLimit" : "0x4C845880",
  "difficulty" : "0x1",
  "mixHash" : "0x0000000000000000000000000000000000000000000000000000000000000000",
  "coinbase" : "0x0000000000000000000000000000000000000000",
  "alloc" : {
    "0x32D5a21376C0dF3F98200a00380b06adeE341B91" : {
      "balance" : "0x0"
    },
    "0x48055998e4f67cf2b018e67faa728cb05dcd2a31" : {
      "comment": "validator_1",
      "balance": "0x0"
    },
    "0xa4ec16934834abc43443f71b472331a6d2de3982" : {
      "comment": "validator_2",
      "balance": "0x0"
    },
    "0xb15310144dbb6ba97e77af10f5467d2bd7fd9d85" : {
      "comment": "validator_3",
      "balance": "0x0"
    },
    "0xf6ed2188f1803cf150b753428dc9523003d6b7ec" : {
      "comment": "validator_4",
      "balance": "0x0"
    }
  },
  "extraData" : "0xf87aa00000000000000000000000000000000000000000000000000000000000000000f85494a4ec16934834abc43443f71b472331a6d2de398294b15310144dbb6ba97e77af10f5467d2bd7fd9d8594f6ed2188f1803cf150b753428dc9523003d6b7ec9448055998e4f67cf2b018e67faa728cb05dcd2a31c080c0"
}