{
  "config" : {
    "chainId" : 687680,
    "homesteadBlock" : 0,
    "eip150Block" : 0,
    "eip155Block" : 0,
    "eip158Block" : 0,
    "byzantiumBlock" : 0,
    "constantinopleBlock" : 0,
    "constantinopleFixBlock" : 0,
    "istanbulBlock" : 0,
    "muirGlacierBlock" : 0,
    "berlinBlock" : 0,
    "londonBlock" : 0,
    "shanghaiTime": 0,
    "zeroBaseFee" : true,
    "contractSizeLimit": 2147483647,
    "qbft" : {
      "blockperiodseconds" : 3,
      "epochlength" : 3000,
      "requesttimeoutseconds" : 6
    }
  },
  "nonce" : "0x0",
  "timestamp" : "0x652399D3",
  "gasLimit" : "0x4C845880",
  "difficulty" : "0x1",
  "mixHash" : "0x0000000000000000000000000000000000000000000000000000000000000000",
  "coinbase" : "0x0000000000000000000000000000000000000000",
  "alloc" : {
    "0x32D5a21376C0dF3F98200a00380b06adeE341B91" : {
      "balance" : "0x33B2E3C9FD0803CE8000000"
    },
    "0xbc413bc4ffa3486baef6a1d6faa6a703090247d4" : {
      "comment": "validator_1",
      "balance": "0x1"
    },
    "0xcbb5c1ef7ae68e7be6181cf82bc64e10448bf8c7" : {
      "comment": "validator_2",
      "balance": "0x1"
    },
    "0xdbd3fb34465246be65b00433803466f4db6eb4a0" : {
      "comment": "validator_3",
      "balance": "0x1"
    },
    "0xef5cab0311c98ea994e4b03bf4515cebcbbd3ef4" : {
      "comment": "validator_4",
      "balance": "0x1"
    }
  },
  "extraData" : "0xf87aa00000000000000000000000000000000000000000000000000000000000000000f85494dbd3fb34465246be65b00433803466f4db6eb4a094cbb5c1ef7ae68e7be6181cf82bc64e10448bf8c794bc413bc4ffa3486baef6a1d6faa6a703090247d494ef5cab0311c98ea994e4b03bf4515cebcbbd3ef4c080c0"
}